:020000023000CC
:10F800000D9472FC0D949BFC0D949BFC0D949BFC41
:10F810000D949BFC0D949BFC0D949BFC0D949BFC08
:10F820000D949BFC0D949BFC0D949BFC0D949BFCF8
:10F830000D949BFC0D949BFC0D949BFC0D949BFCE8
:10F840000D949BFC0D949BFC0D949BFC0D949BFCD8
:10F850000D949BFC0D949BFC0D949BFC0D949BFCC8
:10F860000D949BFC0D949BFC0D949BFC0D949BFCB8
:10F870000D949BFC0D949BFC0D949BFC0D949BFCA8
:10F880000D949BFC0D949BFC0D949BFC0D949BFC98
:10F890000D949BFC0D949BFC0D949BFC0D949BFC88
:10F8A0000D949BFC0D949BFC0D949BFC0D949BFC78
:10F8B0000D949BFC0D949BFC0D949BFC0D949BFC68
:10F8C0000D949BFC0D949BFC0D949BFC0D949BFC58
:10F8D0000D949BFC0D949BFC0D949BFC0D949BFC48
:10F8E0000D949BFC11241FBECFEFD1E2DEBFCDBF34
:10F8F00001E00CBF12E0A0E0B2E0EEEEFFEF03E0AB
:10F900000BBF02C007900D92A430B107D9F722E0D7
:10F91000A4E0B2E001C01D92A630B207E1F70F9457
:10F92000B8FC0D94F5FF01E20EBF0FEF0DBF1124DF
:10F930001FBE0D94B8FC0D9400FC8093C60080910E
:10F94000C00086FFFCCF8091C00080648093C0001F
:10F95000089520E030E02817390749F0EFECF7E090
:10F960003197F1F700C000002F5F3F4FF4CF0895AB
:10F97000CF93DF93CDB7DEB7C452D1400FB6F89422
:10F98000DEBF0FBECDBF94B7F894A89514BE80918A
:10F99000600088618093600010926000789493FF0B
:10F9A00003C0EE27FF2709948091C00082608093F6
:10F9B000C00080E18093C40088E18093C100000012
:10F9C00081B1886381B982B1886382B901990CC021
:10F9D000C12CD12C7601F8E58F2EFBE19F2EA12CB6
:10F9E000B12CA8E07A2E57C0139884E690E00F94CB
:10F9F000A9FC139A84E690E00F94A9FC139884E67E
:10FA000090E00F94A9FC139A84E690E00F94A9FC6F
:10FA1000149884E690E00F94A9FC149A149884E654
:10FA200090E00F94A9FC149A84EF91E00F94A9FC44
:10FA3000EE27FF270994FFCF0115110539F525E0C1
:10FA40002A95F1F700003FEFC31AD30AE30AF30A3D
:10FA500091E080E041E9C4164FE5D40641E0E406B8
:10FA6000F10408F490E0092F182FC701B601A50191
:10FA700094010F94D3FF672B682B692B19F482B183
:10FA8000872582B98091C00087FFD6CF0F5F1F4FB7
:10FA90000115110519F400E010E0F4CF0130110553
:10FAA00009F0B2C0C12CD12C7601412C512C32016D
:10FAB000C15EDE4F188219821A821B82CF51D1405B
:10FAC000C25EDE4F1882CE51D140812C212C312CC8
:10FAD00020E030E080E001301105F9F040E050E036
:10FAE000BA019091C00097FD18C04F5F5F4F6F4FF4
:10FAF0007F4F413092E159079AE76907710588F312
:10FB000040E050E0BA016BBFFA01A791B69111969F
:10FB100029F3EE27FF270994E1CF9091C6008330A7
:10FB200009F44EC020F4813099F150F042C0853084
:10FB300009F452C008F448C0863009F45EC060C0C1
:10FB40009B3109F427C2C15EDE4F488159816A8129
:10FB50007B81CF51D1404F5F5F4F6F4F7F4FC15E71
:10FB6000DE4F488359836A837B83CF51D140C15E86
:10FB7000DE4F488159816A817B81CF51D14041322A
:10FB800051056105710508F03FC000E010E0A3CF0A
:10FB9000913039F0C25EDE4F5881CE51D14095137D
:10FBA000FDC18926C25EDE4F9883CE51D14082E0EE
:10FBB000DECF292F30E0322F2227892683E0D7CFCE
:10FBC000292B892684E0D3CF9E3009F0E7C189260E
:10FBD000212C312C85E0CBCFA1014F5F5F4FE1E0BD
:10FBE000F0E0EC0FFD1FE20DF31D90838926421714
:10FBF000530709F4D5C11A01BACF9811CFC118C063
:10FC0000873009F0B4CF14C00B98139884E690E0C5
:10FC10000F94A9FC00008091C0008D7F8093C000EC
:10FC200081E180935700E895EE27FF270994FFCFE5
:10FC30008981833109F0C3C02A8130E0322F222725
:10FC40009B81292B833109F048C0C114F8EFDF06EE
:10FC5000F3E0EF06F10470F443E0F601E0925B009C
:10FC600040935700E89507B600FCFDCF5FEFD51A2B
:10FC7000E50AF50A8B8553014201AE01455F5F4FEE
:10FC800061E0DA011296AD01FD013197708190E0DB
:10FC9000972B0C01F401A0925B0060935700E8954C
:10FCA000112472E0870E911CA11CB11C2250310955
:10FCB0002115310511F08C91E4CF85E0F2016092BD
:10FCC0005B0080935700E89507B600FCFDCF81E10B
:10FCD00080935700E895240135011A8205C08031D0
:10FCE00009F456C180EC8A8390E002E010E08BE1D9
:10FCF000CC5DDE4F9883C452D1400F949DFCC25E10
:10FD0000DE4F8881CE51D1400F949DFC812F0F94FE
:10FD10009DFC802F0F949DFC8EE00F949DFC95E13F
:10FD2000892EC25EDE4F2881CE51D14082268026A8
:10FD30008126AE014F5F5F4F5A01040F151FCC5D46
:10FD4000DE4F9881C452D140A016B106B9F0F5013A
:10FD500021915F01822FCD5DDE4F2883C352D140B8
:10FD6000CC5DDE4F9883C452D1400F949DFCCD5D95
:10FD7000DE4F2881C352D1408226E1CF882DCC5D51
:10FD8000DE4F9883C452D1400F949DFCC25EDE4F7B
:10FD90002881CE51D1402F5FC25EDE4F2883CE51E5
:10FDA000D14082B128E0822782B9CC5DDE4F9881B4
:10FDB000C452D140911128CF00E010E089CE8431A7
:10FDC00008F068C0863091F48A814B80512C612CF8
:10FDD000712C320155244424782A8D81482A8C8143
:10FDE000582A440C551C661C771C77CF873008F0C6
:10FDF00041C0823009F4CCC0833011F5EA81E0596A
:10FE0000E33028F4F0E0E050FE4F808101C080E054
:10FE10001A828B8311C08A3108F091C08D81836C66
:10FE200099E0E1E0F0E0082E90935700E89507B6DE
:10FE300000FCFDCF1A821B8290E003E010E057CF58
:10FE4000813009F04FCF1A8288E08B8381E48C8364
:10FE500086E58D8382E58E8389E48F8383E58887B9
:10FE600080E589878FE58A8782E38B8790E00BE0C6
:10FE700010E03DCF813119F491E01A8236CF823102
:10FE800008F42DCF1A8290E002E010E0C12CD12CB2
:10FE900076012DCF8831D1F48B81803551F48C815E
:10FEA000883019F4E2E0F0E006C089E0E0E0F0E03C
:10FEB00003C0E3E0F0E089E08093570084911A8268
:10FEC0008B831C8290E004E010E011CF893158F55B
:10FED000853109F4B1CE20F52A8130E0322F222776
:10FEE0009B81292B89010D5F1F4F1A82DE0113961A
:10FEF000843199F46BBEF201479156914C9312965E
:10FF0000FD013197508382E0480E511C611C711C29
:10FF1000225031092115310569F71C9290E0E7CE96
:10FF20008631D1F2DFCE8A3109F075CF1A82E1E055
:10FF3000F0E089E080935700E491EB83C2CF8B31EE
:10FF400059F48D81882321F0813021F488E9B7CFDD
:10FF50008EE1B5CF81E0B3CF8D3109F0C3CE9D8165
:10FF6000903339F48F81882331F0813031F488E97E
:10FF700005C080E003C08EE101C081E01A821B82CF
:10FF80009C831D828E831F8290E007E010E0AFCE3D
:10FF900090E073CF8BE1882E81E0E9CD80E0E7CD62
:10FFA000190186E0E4CDA1E21A2EAA1BBB1BFD01BC
:10FFB0000DC0AA1FBB1FEE1FFF1FA217B307E40748
:10FFC000F50720F0A21BB30BE40BF50B661F771FA0
:10FFD000881F991F1A9469F7609570958095909580
:0EFFE0009B01AC01BD01CF010895F894FFCF45
:04FFEE000F020A00F4
:040000033000F800D1
:00000001FF
